{
  "contractName": "Router",
  "abi": [
    {
      "inputs": [
        {
          "internalType": "address[]",
          "name": "_tokenAddr",
          "type": "address[]"
        }
      ],
      "stateMutability": "nonpayable",
      "type": "constructor"
    },
    {
      "anonymous": false,
      "inputs": [
        {
          "indexed": false,
          "internalType": "address",
          "name": "account",
          "type": "address"
        },
        {
          "indexed": false,
          "internalType": "address",
          "name": "_tokenAddr",
          "type": "address"
        },
        {
          "indexed": false,
          "internalType": "uint256",
          "name": "_cost",
          "type": "uint256"
        },
        {
          "indexed": false,
          "internalType": "uint256",
          "name": "_amount",
          "type": "uint256"
        }
      ],
      "name": "buyRouter",
      "type": "event"
    },
    {
      "anonymous": false,
      "inputs": [
        {
          "indexed": false,
          "internalType": "address",
          "name": "account",
          "type": "address"
        },
        {
          "indexed": false,
          "internalType": "address",
          "name": "_tokenAddr",
          "type": "address"
        },
        {
          "indexed": false,
          "internalType": "uint256",
          "name": "_cost",
          "type": "uint256"
        },
        {
          "indexed": false,
          "internalType": "uint256",
          "name": "_amount",
          "type": "uint256"
        }
      ],
      "name": "sellRouter",
      "type": "event"
    },
    {
      "inputs": [
        {
          "internalType": "address",
          "name": "",
          "type": "address"
        }
      ],
      "name": "supportsTokenAddr",
      "outputs": [
        {
          "internalType": "bool",
          "name": "",
          "type": "bool"
        }
      ],
      "stateMutability": "view",
      "type": "function",
      "constant": true
    },
    {
      "inputs": [
        {
          "internalType": "address",
          "name": "_tokenAddr",
          "type": "address"
        },
        {
          "internalType": "uint256",
          "name": "_cost",
          "type": "uint256"
        },
        {
          "internalType": "uint256",
          "name": "_amount",
          "type": "uint256"
        }
      ],
      "name": "buyTokenRouter",
      "outputs": [],
      "stateMutability": "payable",
      "type": "function",
      "payable": true
    },
    {
      "inputs": [
        {
          "internalType": "address",
          "name": "_tokenAddr",
          "type": "address"
        },
        {
          "internalType": "uint256",
          "name": "_cost",
          "type": "uint256"
        },
        {
          "internalType": "uint256",
          "name": "_amount",
          "type": "uint256"
        }
      ],
      "name": "sellTokenRouter",
      "outputs": [],
      "stateMutability": "payable",
      "type": "function",
      "payable": true
    }
  ],
  "bytecode": "0x608060405234801561001057600080fd5b50604051610a99380380610a998339818101604052602081101561003357600080fd5b810190808051604051939291908464010000000082111561005357600080fd5b8382019150602082018581111561006957600080fd5b825186602082028301116401000000008211171561008657600080fd5b8083526020830192505050908051906020019060200280838360005b838110156100bd5780820151818401526020810190506100a2565b5050505090500160405250505060005b815181101561014d5760016000808484815181106100e757fe5b602002602001015173ffffffffffffffffffffffffffffffffffffffff1673ffffffffffffffffffffffffffffffffffffffff16815260200190815260200160002060006101000a81548160ff02191690831515021790555080806001019150506100cd565b505061093b8061015e6000396000f3fe6080604052600436106100345760003560e01c80636c217bd4146100395780636e2a754f146100915780637e68ab1a146100e9575b600080fd5b61008f6004803603606081101561004f57600080fd5b81019080803573ffffffffffffffffffffffffffffffffffffffff1690602001909291908035906020019092919080359060200190929190505050610150565b005b6100e7600480360360608110156100a757600080fd5b81019080803573ffffffffffffffffffffffffffffffffffffffff16906020019092919080359060200190929190803590602001909291905050506104d6565b005b3480156100f557600080fd5b506101386004803603602081101561010c57600080fd5b81019080803573ffffffffffffffffffffffffffffffffffffffff1690602001909291905050506108e5565b60405180821515815260200191505060405180910390f35b82600115156000808373ffffffffffffffffffffffffffffffffffffffff1673ffffffffffffffffffffffffffffffffffffffff16815260200190815260200160002060009054906101000a900460ff16151514610216576040517f08c379a000000000000000000000000000000000000000000000000000000000815260040180806020018281038252601b8152602001807f5468697320746f6b656e206973206e6f7420737570706f72746564000000000081525060200191505060405180910390fd5b6000849050833414610290576040517f08c379a00000000000000000000000000000000000000000000000000000000081526004018080602001828103825260118152602001807f496e73756666696369656e742066696e6400000000000000000000000000000081525060200191505060405180910390fd5b828173ffffffffffffffffffffffffffffffffffffffff166370a08231306040518263ffffffff1660e01b8152600401808273ffffffffffffffffffffffffffffffffffffffff16815260200191505060206040518083038186803b1580156102f857600080fd5b505afa15801561030c573d6000803e3d6000fd5b505050506040513d602081101561032257600080fd5b810190808051906020019092919050505010156103a7576040517f08c379a000000000000000000000000000000000000000000000000000000000815260040180806020018281038252600e8152602001807f546f6b656e20536f6c64204f757400000000000000000000000000000000000081525060200191505060405180910390fd5b8073ffffffffffffffffffffffffffffffffffffffff1663a9059cbb33856040518363ffffffff1660e01b8152600401808373ffffffffffffffffffffffffffffffffffffffff16815260200182815260200192505050602060405180830381600087803b15801561041857600080fd5b505af115801561042c573d6000803e3d6000fd5b505050506040513d602081101561044257600080fd5b8101908080519060200190929190505050507f410433105d1d6472d64e683a55ba6b37f8809d1c02e2bafc8d7a82cb8c2aa5f233868686604051808573ffffffffffffffffffffffffffffffffffffffff1681526020018473ffffffffffffffffffffffffffffffffffffffff16815260200183815260200182815260200194505050505060405180910390a15050505050565b82600115156000808373ffffffffffffffffffffffffffffffffffffffff1673ffffffffffffffffffffffffffffffffffffffff16815260200190815260200160002060009054906101000a900460ff1615151461059c576040517f08c379a000000000000000000000000000000000000000000000000000000000815260040180806020018281038252601b8152602001807f5468697320746f6b656e206973206e6f7420737570706f72746564000000000081525060200191505060405180910390fd5b6000849050838173ffffffffffffffffffffffffffffffffffffffff166370a08231336040518263ffffffff1660e01b8152600401808273ffffffffffffffffffffffffffffffffffffffff16815260200191505060206040518083038186803b15801561060957600080fd5b505afa15801561061d573d6000803e3d6000fd5b505050506040513d602081101561063357600080fd5b810190808051906020019092919050505010156106b8576040517f08c379a000000000000000000000000000000000000000000000000000000000815260040180806020018281038252601a8152602001807f496e73756666696369656e7420746f6b656e2062616c616e636500000000000081525060200191505060405180910390fd5b8247101561072e576040517f08c379a000000000000000000000000000000000000000000000000000000000815260040180806020018281038252601e8152602001807f44657820646f6573206e6f74206861766520656e6f7567682066756e6473000081525060200191505060405180910390fd5b8073ffffffffffffffffffffffffffffffffffffffff166323b872dd3330876040518463ffffffff1660e01b8152600401808473ffffffffffffffffffffffffffffffffffffffff1681526020018373ffffffffffffffffffffffffffffffffffffffff1681526020018281526020019350505050602060405180830381600087803b1580156107bd57600080fd5b505af11580156107d1573d6000803e3d6000fd5b505050506040513d60208110156107e757600080fd5b81019080805190602001909291905050505060003373ffffffffffffffffffffffffffffffffffffffff168460405180600001905060006040518083038185875af1925050503d8060008114610859576040519150601f19603f3d011682016040523d82523d6000602084013e61085e565b606091505b505090507f410433105d1d6472d64e683a55ba6b37f8809d1c02e2bafc8d7a82cb8c2aa5f233878787604051808573ffffffffffffffffffffffffffffffffffffffff1681526020018473ffffffffffffffffffffffffffffffffffffffff16815260200183815260200182815260200194505050505060405180910390a1505050505050565b60006020528060005260406000206000915054906101000a900460ff168156fea264697066735822122096821892f1bf5ee707d42522e6e313630cc62d448bc62cb69677c73c2ed0a35c64736f6c63430007050033",
  "immutableReferences": {},
  "source": "// SPDX-License-Identifier: MIT\npragma solidity >=0.5.0 <0.8.0;\n\n\nimport \"./ERC20.sol\";\n\ncontract Router {\n\n  event buyRouter(address account , address _tokenAddr, uint256 _cost , uint256 _amount);\n  event sellRouter(address account , address _tokenAddr, uint256 _cost , uint256 _amount);\n\n  mapping (address => bool ) public supportsTokenAddr;\n\n  modifier supportsToken(address _tokenAddr){\n    require(supportsTokenAddr[_tokenAddr] == true , \"This token is not supported\" );\n    _;\n  }\n\n  constructor (address[] memory _tokenAddr) {\n    for(uint i=0 ; i < _tokenAddr.length; i++ ){\n      supportsTokenAddr[_tokenAddr[i]] = true;\n    }\n  }\n\n\n  function buyTokenRouter( address _tokenAddr, uint256 _cost , uint256 _amount) external payable supportsToken(_tokenAddr){\n    ERC20 token = ERC20(_tokenAddr);\n    require(msg.value == _cost , \"Insufficient find\");\n    require(token.balanceOf(address(this)) >= _amount , \"Token Sold Out\");\n    token.transfer(msg.sender, _amount);\n    emit buyRouter(msg.sender,_tokenAddr, _cost, _amount);\n  }\n\n  function sellTokenRouter( address _tokenAddr, uint256 _cost , uint256 _amount) external payable supportsToken(_tokenAddr){\n    ERC20 token = ERC20(_tokenAddr);\n    require(token.balanceOf(msg.sender) >= _cost , \"Insufficient token balance\");\n    require(address(this).balance >= _amount , \"Dex does not have enough funds\");\n    token.transferFrom(msg.sender , address(this), _cost);\n    (bool success , ) = payable(msg.sender).call{value: _amount}(\"\");\n    emit buyRouter( msg.sender, _tokenAddr, _cost, _amount);\n  }\n\n}",
  "sourcePath": "/Users/terasakakazuma/developper/dex-dev/todo-ts/contracts/Router.sol",
  "compiler": {
    "name": "solc",
    "version": "0.7.5+commit.eb77ed08.Emscripten.clang"
  },
  "schemaVersion": "3.4.3",
  "updatedAt": "2021-09-12T15:07:01.802Z",
  "networkType": "ethereum",
  "devdoc": {
    "kind": "dev",
    "methods": {},
    "version": 1
  },
  "userdoc": {
    "kind": "user",
    "methods": {},
    "version": 1
  }
}